:020000040000FA
:100000003037002049370000F1020000E90200000B
:10001000ED020000D9020000290E000000000000DF
:10002000000000000000000000000000E50B0000E0
:10003000E502000000000000F5020000150C0000C1
:10004000B7370000B9370000BB370000BD370000EC
:100050000000000000000000C1370000C3370000AE
:10006000C5370000C7370000C9370000CB37000094
:10007000CD370000CF370000D1370000D337000064
:10008000D5370000D7370000D9370000DB37000034
:10009000DD370000DF370000E1370000E337000004
:1000A000E5370000E737000000000000E9370000F6
:1000B000EB370000ED370000EF370000F1370000AC
:1000C000F3370000F5370000F7370000F93700007C
:1000D000FB370000FD370000FF370000013800004B
:1000E0000000000000000000033800000538000098
:1000F0000738000009380000000000000B3800003D
:100100000D3800000F3800001138000013380000CF
:100110001538000017380000193800001B3800009F
:100120001D3800001F38000021380000233800006F
:100130002538000027380000293800002B3800003F
:100140002D3800002F380000DD0200003338000099
:1001500035380000373800001D0C00003B38000027
:100160003D380000DFF80CD000F068F80048004788
:10017000511F00003037002040EA01039B0703D0E5
:1001800009E008C9121F08C0042AFAD203E011F8D6
:10019000013B00F8013B521EF9D27047D2B201E098
:1001A00000F8012B491EFBD270470022F6E710B57C
:1001B00013460A4604461946FFF7F0FF204610BDD5
:1001C00030B504460020034600E05B1C934203D296
:1001D000E05CCD5C401BF8D030BD2DE9F05F0546FA
:1001E000002092469B4688460646814640241BE0F6
:1001F000284641464746224600F041F853465A46B3
:10020000C01A914110D311461846224600F028F832
:100210002D1A67EB01084F4622460120002100F00D
:100220001FF817EB00094E41201EA4F10104DFDC8A
:10023000484631462A464346BDE8F09F064C074DE6
:1002400006E0E06840F0010394E8070098471034A6
:10025000AC42F6D3FFF78AFFE03E0000003F00000B
:10026000202A04DB203A00FA02F100207047914076
:10027000C2F1200320FA03F3194390407047202A6B
:1002800004DB203A21FA02F00021704721FA02F340
:10029000D040C2F12002914008431946704730B562
:1002A0008C1810F8012B12F00F0301D110F8013B4C
:1002B000120906D110F8012B03E010F8015B01F8D8
:1002C000015B5B1EF9D101E001F8013B521EFBD13D
:1002D000A142E6D3002030BDFEE7000080B501F06A
:1002E0003DFA80BD70470000FEE70000FEE7000019
:1002F0007047000070470000B0B582B041F23C1575
:10030000C2F2000505F14801019100211F2800916A
:1003100016D12A1D6B7C07CA012BA962EA6209D893
:1003200045F25531C4F24231884203D1A87C0138EC
:1003300010281CD34FF4A42000F0FAF8002413E096
:1003400043F6B060C0F2000003F092FA6BA003F035
:10035000E1FC43F6CC60C0F2000003F089FA4FF4F0
:10036000A42000F0E5F80024204602B0B0BDE87CEF
:100370005A2800F263800024DFE810F05B00670079
:1003800067007D006700670067006700670067001F
:100390006700670067006700670067006700670025
:1003A00082006700670067006700670067006700FA
:1003B00087008C0067006700910067006700670096
:1003C0006700960067009B0067006700A000670059
:1003D000A3006700670067006700AE006700670062
:1003E00067006700670067006700670067006700D5
:1003F00067006700670067006700670067006700C5
:1004000067006700670067006700670067006700B4
:1004100067006700670067006700670067006700A4
:100420006700670067006700670067006700670094
:10043000A60001A8694600F023FB4CE0A82848D09C
:10044000AA2802D100F07EFB45E04FF4A42000F082
:100450006FF843F6D160C0F2000003F009FAE97CBE
:100460002CA003F005FA43F6CC60C0F2000003F0C4
:10047000FFF9002430E001A8694600F0B7FA2AE04D
:1004800001A8694600F062F825E001A8694600F07D
:10049000D3F820E001A8694600F0E0FA1BE001A8CB
:1004A000694600F0F1F816E001A8694600F076FA16
:1004B00011E001A8694600F04BFA0CE000F072F977
:1004C00009E000F0EFFA06E001A8694600F096F8AE
:1004D00001E000F0D1F90446002C3FF445AF287844
:1004E00000287FF441AF009921B10198C9B202F010
:1004F00065FD39E7002002F049FD35E773697A654B
:1005000020213D2073697A656F6628636277290D23
:1005100000000000756E737570706F7274656420F2
:10052000636D643A3078253032780D0A000000009F
:1005300041F23C12010CC2F2000282F83210010AB0
:1005400082F8331082F83400704700002DE9F04142
:100550008AB0884643F63851C0F2000191E82C0079
:1005600001F10C0E9EE8D050019204AA029303956B
:1005700082E8D0500A6A41F23C11C2F20001CB6815
:10058000099242F63062C3F23012099263B10A7DD9
:10059000D2070CD1CD7D0068242D28BF242501A9C8
:1005A0002A46FFF7E9FD19E04FF4A42020E0497D39
:1005B000802909D0C1B900684FF4004181804FF013
:1005C00000710160062509E000684FF020314160AC
:1005D00048F20001C0F6000101600825C8F800508B
:1005E00001200AB0BDE8F08142F20040C0F20500EF
:1005F000FFF79EFF00200AB0BDE8F081B0B541F2E0
:100600003C12C2F20002D3687BB1D57E0C46006872
:1006100043F65C511B2D28BF1B25C0F200012A4662
:10062000FFF7AAFD01202560B0BD4FF4A420FFF71D
:100630007FFF0020B0BD0000B0B582B041F23C1297
:10064000C2F20002D368BBB1D57D0C4692F83110DE
:10065000042D4FF0030228BF0425002901921CBF7E
:1006600080218DF80610006801A92A46FFF784FD55
:100670002560012002B0B0BD4FF4A420FFF758FF61
:10068000002002B0B0BD000080B541F23C12C2F2C1
:100690000002D2682AB14FF4A420FFF749FF0020DE
:1006A00080BD0022026001200A6080BD70B541F269
:1006B0003C16C2F20006F16BB6F84020B06B01FBAD
:1006C00002F406F14805B4F5007F28BF4FF400742A
:1006D0002946224602F038FC38B141F20010C0F23F
:1006E0000400FFF725FF002070BD42F64C60C2F207
:1006F0000000007A2946224602F058F9B6F8400078
:10070000D6E90E23B4FBF0F0F16A0244181AC6E9E8
:100710000E20A1EB0400F0621CBF012070BD03207D
:100720003070012070BD000070B541F23C16C2F27D
:100730000006B16B054606F14804084621462A46E4
:1007400002F014FC38B140F20030C0F20400FFF7B0
:10075000EFFE002070BDB6F84000D6F82CC0B5FB07
:10076000F0F1D6E90E320B44511AACEB0502C6E9A2
:100770000E31F26210D001FB00F242F64C60C2F280
:10078000000000782146B2F5007F28BF4FF40072C8
:1007900002F0C0F8012070BD002002F0F7FB01203C
:1007A00070BD000080B541F23C10C2F2000090F92B
:1007B0001010B1F1FF3F1CDCC168D1B1428BD0F801
:1007C00015301204D0F844C01BBA12BA8363134424
:1007D0006345C26313D942F20010C0F20500FFF76F
:1007E000A7FE43F6B060C0F2000003F041F81DA080
:1007F00016E04FF4A420FFF79BFE002080BDB0F868
:1008000040305A43914204D102210170FFF74EFF5C
:1008100080BD43F6B060C0F2000003F029F805A0E7
:1008200003F078FA43F6CC60C0F2000003F020F841
:10083000002080BD736373695F626C6B5F6C656E73
:1008400020646F6573206E6F74206D61746368201F
:10085000776974682064446174614C656E6774687C
:100860000D0000004C4241206F7574206F662072AD
:10087000616E67650D00000080B541F23C10C2F268
:10088000000090F91010B1F1FF3F1DDCC168D9B133
:10089000D0F81520D0F819E0D0F844C013BA9EFA69
:1008A0008EF2836313446345C26313D942F200108E
:1008B000C0F20500FFF73CFE43F6B060C0F2000056
:1008C00002F0D6FF1DA016E04FF4A420FFF730FE83
:1008D000002080BDB0F840305A43914204D102213B
:1008E0000170FFF7E3FE80BD43F6B060C0F2000088
:1008F00002F0BEFF05A003F00DFA43F6CC60C0F293
:10090000000002F0B5FF002080BD00BF7363736973
:100910005F626C6B5F6C656E20646F6573206E6FD9
:1009200074206D6174636820776974682064446121
:1009300074614C656E6774680D0000004C42412084
:100940006F7574206F662072616E67650D00000020
:10095000B0B541F23C12C2F20002D368C3B1536C8D
:10096000B2F840200068013B4FEA136C4FEA134E87
:100970001C0A150AC370002380F800C080F801E04B
:10098000847083808571C271082008600120B0BD29
:100990004FF4A420FFF7CCFD0020B0BD70B541F2AC
:1009A0003C12C2F20002D368D3B1536CB2F84020BB
:1009B00000684FEA136C4FEA134E1C0A150A4FF0F9
:1009C0000066C3710223066080F804C080F805E069
:1009D000847103818572C2720C200860012070BD91
:1009E0004FF4A420FFF7A4FD002070BD2DE9F041D5
:1009F00086B041F23C12C2F20002D3682BB343F638
:100A00007853C0F200038846D57DD96892F832C089
:100A1000122D28BF122593E8D0000491198ACDE940
:100A20000146ADF81410B2F833100068ADF810109C
:100A300001A92A4603978DF806C0FFF79DFBC8F869
:100A40000050012006B0BDE8F0814FF4A420FFF76C
:100A50006FFD002006B0BDE8F081000080B541F2D6
:100A60003C12C2F20002D2682AB14FF4A420FFF770
:100A70005FFD002080BD0022026001200A6080BD71
:100A800080B541F23C12C2F20002D2682AB14FF4A2
:100A9000A420FFF74DFD002080BD00220260012050
:100AA0000A6080BD10B541F23C11C2F2000191F91B
:100AB000100000281ED4C868E0B1D1F815204C8B76
:100AC00013BA2204D1F844C012BA8B6313446345AD
:100AD000CA6315D943F6B060C0F2000002F0C8FE48
:100AE00013A003F017F943F6CC60C0F2000002F047
:100AF000BFFE1BE04FF4A420FFF71AFD002010BD3D
:100B0000B1F840305A43904210D142F64C60C2F2E4
:100B100000000124007801F8484BB2F5007F28BF9F
:100B20004FF4007201F0F6FE204610BD002010BD0B
:100B30004C4241206F7574206F662072616E67654C
:100B40000D00000010B541F23C11C2F2000191F914
:100B5000100000281ED4C868E0B1D1F81520D1F8E3
:100B60001930D1F844C014BA1ABA131963458C630A
:100B7000CA6315D943F6B060C0F2000002F078FEF7
:100B800013A003F0C7F843F6CC60C0F2000002F0F7
:100B90006FFE1BE04FF4A420FFF7CAFC002010BD3D
:100BA000B1F840305A43904210D142F64C60C2F244
:100BB00000000124007801F8484BB2F5007F28BFFF
:100BC0004FF4007201F0A6FE204610BD002010BDBB
:100BD0004C4241206F7574206F662072616E6765AC
:100BE0000D00000070470000B0B501380024B4EBE0
:100BF000106F18BFB0BD4EF21005CEF20005686050
:100C00004FF0FF300F2100F045F90720AC6028605D
:100C1000B0BD000080B500F0B5FE80BD2DE9F04FFD
:100C200083B046F20649C4F2080999F8044039F83D
:100C3000045C39F8020C019089F8044001F072FA62
:100C40000290600728D541F2E074C2F20004204609
:100C50004FF4C071FFF7A9FA4020606001F0FAFF7D
:100C600001270024A9F80070A9F80240FEB230461E
:100C700001F0A0FA072E07F1010789F85C40A9F8F6
:100C80005E4089F85D40A9F86040EFD342F62470D9
:100C9000C2F2000000210170B9F8000000EA050A64
:100CA0005FEACA7009D0012029F8040C002001F085
:100CB00081FA01F0BBF82AF0010ABAF1000F5DD009
:100CC0004FF0010B012510E0944238BF224609681D
:100CD00092B2304601F074FA89F80CB02AEA080A98
:100CE000BAF1000F05F1010548D0EEB20BFA06F893
:100CF00018EA0A0FF4D0304601F05CFA29F8048CA7
:100D000099F80C00400705D599F80C0000F0FB009D
:100D100089F80C0041F2E07106EB8600C2F2000196
:100D200001EB8000014651F8307F0B4653F8044F29
:100D300031F8082C944209D907EB020C876BC1F8F3
:100D400000C017448763A41A08E000BF07EB040C37
:100D5000876BC1F800C0274400248763002C1C6007
:100D6000B2D1B9F8001021EA0801A9F80010816B8E
:100D700045F08000C0B201F043FFAFE7B9F80200D0
:100D8000019910EA010B48D04FF0010801240EE050
:100D9000B9F80200A843A9F80200304601F040FF6C
:100DA0002BEA050BBBF1000F04F1010435D0E6B2CC
:100DB00008FA06F515EA0B0FF4D0304601F0FAF9FF
:100DC00029F8025C99F81000C007E9D041F2E071FF
:100DD00006EB8600C2F20001B9F8127001EB800A3E
:100DE000DAF8D01030463A4601F0B6F999F810001A
:100DF00000F0FE0089F81000DAE93402DAF8D810C1
:100E000038443944D21BCAE93402CAF8D810BFD0DA
:100E1000BAF8C8008742C3D2BAE7029801F0CAF90B
:100E200003B0BDE8F08F0000FEE70000002848BFD7
:100E3000704700F01F01012202FA01F14EF2801208
:100E40004009CEF2000242F82010BFF34F8FBFF3EB
:100E50006F8F70474EF20810CEF20000042101603F
:100E600070470000002848BF704700F01F010122B2
:100E700002FA01F14EF200124009CEF2000242F8ED
:100E8000201070474EF24240CEF200002021017047
:100E9000704700004EF6145300F00F02CEF200032C
:100EA00009011A4400F16043B0F1FF3FC8BF03F5E8
:100EB00064421170704700004EF60C50CEF20000F4
:100EC00001684FF6FF02114041F0052141F47A011B
:100ED000016070472DE9F04F81B040F2C022C0F2AE
:100EE0000802D2F8081140F6DC20CFF223508142EC
:100EF00026D0D2F8287143F63516B2F82E31118873
:100F00001289C4F25056B74212D043F63116C4F2D9
:100F10005056B74217D045F23756C4F24656B7423C
:100F20000ED143F0010343F23507BB4208D112E072
:100F300043F63907BB420ED043F63707BB420AD00F
:100F400001B0BDE8F08F43F23277BB4203D043F2E9
:100F50003477BB42F4D143F60044C2F2000441EAC4
:100F6000014142EA024200234FF40027DE59E650D5
:100F70000433B3F5806FF9D148F2000340F2001555
:100F8000C7F6FF7346F6961942F6140A46F6A51BF5
:100F9000C4F2080559405A4003266FF0FF08C5F215
:100FA000AA59C5F6962ACEF2CB7B4FF40027C4F897
:100FB000C012C4F8C822C4F8C80303E00120013EEF
:100FC000310632D04FF4002045F80890C5F800A053
:100FD000C5F800B000F0B2FC0028EFD14FF40020BB
:100FE00021464FF48062002300F0B6FC0028E5D1D2
:100FF000002000BF2158C259914207D10430B0F5FA
:10100000806FF7D100200028D9D102E0012000280C
:10101000D5D143F25640C0F212006FF0FF012860B4
:101020002860685001B0BDE8F08F00283FF488AF19
:101030004FF4002000F082FC43F25640C0F2120050
:101040006FF0FF0128602860685000BFFEE70000D5
:101050002DE9F0410C4640F200454FF6004646F6B9
:1010600096110138C4F20805CFF6FF76C5F2AA51F1
:1010700004284FF00008A95100F25281DFE810F077
:101080000500F80041007700BD0029684FF26000BC
:101090000122CFF6FF7062F302012960014600BF12
:1010A0002A68D20401D50131FAD3296801F4E0613C
:1010B000B1F5807F40F0108140F21041C4F2080188
:1010C00051F80C2C43F2006742F08073C0F26E17A7
:1010D000BC4208BF22F0807341F80C3C0A6842F021
:1010E00004020A60024600BF4B685B0705D4013268
:1010F000FAD302E0013080F010814A685203F9D53A
:101100000BE14EF21001CEF200010A684FF26000CE
:1011100022F001020A6029680322CFF6FF7062F311
:1011200002012960014600BF2A68D20401D50131BD
:10113000FAD3296801F4E061B1F5407F40F0CC803A
:1011400040F21041C4F208010A6842F002020A604B
:10115000024600BF4B689B0705D40132FAD302E078
:10116000013080F0B6804A689203F9D5B1E0296871
:10117000AA2262F31741296029684FF26000042215
:10118000CFF6FF7062F302012960A0F57A710A467A
:101190002B68DB0401D50132FAD32A6802F4E0623D
:1011A000B2F5806F40F0988040F21042C4F208021D
:1011B000136843F4807313605368DB0504D4013172
:1011C000FAD301E0013002D25168C901FAD54AF2DE
:1011D000FF10C0F24A40844200F3838045F20010C1
:1011E000C0F22520844206D046F60040C0F2DC2042
:1011F000844240F0928001218CE029684FF2600027
:101200000522CFF6FF7062F302012960014600BF9C
:101210002A68D20401D50131FAD3296801F4E061CA
:10122000B1F5A06F58D140F21041C4F208010A682C
:101230004DF6836342F001020A60C4F21B33CA68B0
:10124000A4FB03374FF0FF3322F01F0203EB974359
:101250001A43CA60024600BF4B68DB0704D1013263
:10126000FAD301E0013058D24A68D203FAD554E0EB
:101270004EF21001CEF200010A684FF2600022F037
:1012800001020A6029680222CFF6FF7062F30201B0
:10129000296001462A68D20401D50131FAD32968B0
:1012A00001F4E061B1F5007F16D140F21041C4F2C3
:1012B00008010A6842F008020A6002464B681B07F0
:1012C00004D40132FAD301E0013002D24A68120399
:1012D000FAD54FF4004420E0012045F80680BDE82F
:1012E000F0814AF20020C0F24A40844211D04DF60B
:1012F0000000C0F2B85084420FD10020012100F05C
:1013000051F80120012100F04DF80320012100F0E7
:1013100049F80221042000F045F8204600F064FD61
:10132000002045F80680BDE8F081000040F2004151
:101330004FF6004246F69610C4F20801CFF6FF724F
:10134000C5F2AA5088500868012363F302000860C0
:101350004FF26000CFF6FF700B68DB0401D501305F
:10136000FAD3086800F4E060B0F5807F15D140F250
:101370001040C4F208004FF0806340F80C3C036852
:1013800043F00C030360036823F008030360036861
:1013900043F008030360002000E0012000238B508D
:1013A0007047000010B5002446F69612C4F20804F7
:1013B000C5F2AA520428226051D8DFE800F00318D1
:1013C00023420D0040F20440C4F20800026822F0FB
:1013D0000F021143016042E040F20440C4F20800F1
:1013E000026822F4700242EA0151016037E040F2E3
:1013F0000440C4F20800026822F0F00242EA01113F
:1014000001602CE040F20440C4F20800026822F4BB
:10141000704242EA0132026040F20400C2F200006F
:101420000068C84044F24021C0F20F01884213D83E
:101430004EF21000CEF20000016821F001010160BF
:101440000DE040F20440C4F20800026822F4702269
:1014500042EA0141016002E0032000F007FB0020A6
:10146000206010BD40F20440C4F20800016840F260
:101470000402C1F303310068C2F20002C0F303406A
:10148000126822FA01F121FA00F0704740F204409C
:10149000C4F20800006840F20401C2F20001C0F387
:1014A0000330096821FA00F07047000080B5FFF7AB
:1014B00003FDFFF73BFF032000F0D8FA4FF48070E4
:1014C000012100F007F84CF20000C4F2000000F027
:1014D0001FF980BD6FF0004340F240424FF6C03C20
:1014E000984246F69613C4F20802CFF6FF7CC5F286
:1014F000AA5342F80C300ED140F25440C4F2080016
:10150000002918BF4FF0FF31116011610160002008
:1015100042F80C007047C0F3C16320F0C05049B1DD
:10152000022B12D0012B18D0002BF0D111680843E8
:101530001060ECE7022B14D0012B1BD0002BE6D15E
:10154000116821EA00001060E1E740F25441C4F262
:1015500008010B6818430860D9E711690843106156
:10156000D5E740F25441C4F208010B6823EA0000B9
:101570000860CCE7116921EA00001061C7E70000AC
:10158000B0B54FF2600340F2184240F2104E4FF6F1
:10159000F03C46F69614CFF6FF73C4F20802C4F28C
:1015A000080ECFF6FF7CC5F2AA544EF80C4090B15D
:1015B000DEF80040012815D144F00204CEF80040C6
:1015C000146824F440741460DEF8004044F400749D
:1015D000CEF8004012E0DEF8004044F00404CEF8FB
:1015E00000400BE044F00104CEF80040A3F57A542B
:1015F00052F8045CED0301D40134F9D3146824F0EB
:10160000070420431060106820F0300040EA011009
:101610001060DEF8000040F48070CEF8000018463C
:101620001168C90304D50130FAD301E0013303D2B4
:1016300052F8040CC001F9D5106940F001001061A6
:10164000106940F44070106100204EF80C00B0BDED
:10165000002246F69613C4F20802C5F2AA5313609C
:10166000D2F80CC001282CF0007308BF4CF00073B6
:10167000D360D2F8803423F0E04343EA0070C2F82C
:101680008004D2F8880420F0704040EA0170C2F86B
:101690008804002010607047B0B582B0019040F21D
:1016A0000800C2F20000006863280CDC012810D09A
:1016B0000A280CD1019848F21F51C5F2EB11A0FB8A
:1016C00001014D0916E064280CD0B0F57A7F019D28
:1016D00010E0019844F6D351C1F26201A0FB010170
:1016E0008D0907E001984CF6CD41CCF6CC41A0FB2A
:1016F0000101CD0800F0AAF80446002D08BF01251D
:1017000000F0A4F8001BA842FAD302B0B0BD00005C
:10171000B0B541F20065C2F20005044628464FF418
:10172000E071FEF742FD41F20440C2F20000C02128
:10173000FEF73BFD204600F069F8FFF7A3FBFFF73B
:1017400089FB41F20C00215841F000412150A56075
:10175000606840F001006060B0BD00002DE9F04F0E
:1017600081B04DF2080A4CF20801C4F2000AC4F23A
:1017700000015AF808BC0868496800F1080441F201
:101780000440C2F2000001F1080600F1080500273C
:101790004FF0010807E000BF0137103610340C2F5E
:1017A00005F1100518D008FA07F919EA0B0FF3D064
:1017B00055F8081C09B128688847CAF800902078B5
:1017C0004007E9D130784007E6D14CF20800C4F276
:1017D0000000C0F82490DFE741F20445BBF1FF3F71
:1017E000C2F2000502DD01B0BDE8F08F4FF000400D
:1017F0000024CAF8000002E01034C02CF3D02819ED
:1018000041680029F8D0C0688847F5E7002140F614
:10181000FF724160C2614262C2624263C2630122DE
:1018200041F2080CC26440F6FF7200EB0C03C8F2F0
:101830000002596040F80C2041F2FC0210440C22D6
:10184000013A40F8041FFBD17047000041F64820E0
:10185000C2F20000006870472DE9F04F6FF01F0CD6
:1018600000234FF0010E002609E000BF0136102EC4
:101870000CF1040C03F1020308BFBDE8F08F0EFA6F
:1018800006F70F42F2D0046903259D4024EA050AB9
:10189000147892F801B09C4044EA0A0492F802805D
:1018A00092F8039004614469082E24EA050A0BFAB1
:1018B00003F444EA0A044461846924EA050A08FA44
:1018C00003F444EA0A048461C46924EA050809FAB5
:1018D00003F444EA0804C461D0F82080147928EAAB
:1018E000050504FA03F444EA05040462446A5579E0
:1018F00024EA070405FA06F544EA05044462846A0A
:10190000957924EA070405FA06F544EA0504846299
:1019100064464FF00F054FF0300738BF203405FA0A
:1019200004F838BF2C2750F80790D57929EA080821
:1019300005FA04F444EA0804C45197E780B5042189
:10194000C1F200010968EFF3108272B68847B0FA5D
:1019500080F0400962B680BD42EA000C5FEA8C7CF0
:101960001CBF0120704780B54FF0805CDCF800C0E0
:10197000EFF3108E72B6E047B0FA80F0400962B61D
:1019800080BD000080B541F64820C2F20000016829
:101990000131016000F068F880BD000010B5012B36
:1019A000044618D14EF60C50CEF200000068072312
:1019B00023EA1020C0F1040C0F2323FA00F05FFA91
:1019C0008CF39940104001432046FFF763FA20460C
:1019D000FFF748FA10BD2046FFF728FA10BD0000B7
:1019E00040F610424FF2F03C46F69613C4F208025D
:1019F000CFF6FF7CC5F2AA5342F80C3000291168DB
:101A00000CBF21EA000008431060002042F80C00DF
:101A1000704700000021C0F3C26246F69613C4F27C
:101A20000801C5F2AA53042A0B601AD820F06050AE
:101A3000DFE802F003060C171200C1F8200810E0DE
:101A400040F62402C4F2080210600AE040F62402C4
:101A5000C4F20802D06004E040F62402C4F2080296
:101A600010610020086070477047000010B5044600
:101A7000FFF70CFD44F6D351C1F26201A0FB010156
:101A80008809FFF7B1F84FF0FF302146FFF702FA5F
:101A900010BD00000068806A084018BF0120704730
:101AA00010B5044600F06AF82068C168227A21F077
:101AB00003011143C160C168627A21F0040141EA67
:101AC0008201C160A17A79B1C268032942F008029B
:101AD000C26005D0012907D1C16821F0100102E0E0
:101AE000C16841F01001C1600169227B21F004014D
:101AF00041EA82010161FFF7B5FCD4E9001200EB75
:101B00005200B0FBF2F08860E07A0138042818D85F
:101B1000DFE800F003060A0D110001F11C000CE0E3
:101B200001F11000082209E001F1140005E001F1C3
:101B30001000102202E001F11800012203681A438C
:101B40000260486A40F480704862486A40F00100D0
:101B50004862486A20F4C0604862486A20F0060083
:101B60004862C86840F48040C860C86840F40040DB
:101B7000C8600120A4F8790010BD000001680022AF
:101B800040F6FF738A60CA600A614A618A61CA616D
:101B90000A624A620B6380F87A20A0F878207047C6
:101BA0002DE9F041044690F87900164640F02002F5
:101BB000212A0DD10F4600294FF0010518BF002E34
:101BC00002D12846BDE8F08194F87810012902D1AD
:101BD0000220BDE8F081012140F0100084F8781067
:101BE000002184F87900206884F87A10A682E182C6
:101BF000416A984641F480714162AEB120464FF48B
:101C000000410122434600F0D3FBB0B92068013EF9
:101C1000816A8903FCD417F8011B4160E08A310412
:101C200000F10100E082E9D120464FF4804100221A
:101C30004346002500F0BCFB30B14FF48070A4F89F
:101C400078000320BDE8F08194F8790084F878509A
:101C500000F0EF0084F879002846BDE8F08100002C
:101C6000F0B585B005464078AF8822281BD00E46D7
:101C7000212826D0202835D13168EA8803AD2846AE
:101C8000FEF77AFAFCB201AE2046314600F07AFC4B
:101C9000304629460722FEF793FA00B303A92046EF
:101CA00000F08AFC1BE06888FDB200F00101C0F37F
:101CB0004004284600F07AFC2846214600F07EFCCD
:101CC0000DE0F8B203A9144600F05CFC3068DDF8C2
:101CD0000F10039AC0F80310026007202060002054
:101CE00005B0F0BD06A001F0C3FD697808A001F0C1
:101CF000BFFD11A001F0BCFD4FF0FF3005B0F0BDFD
:101D00001B5B33336D5B572F5553425D2000000042
:101D1000556E68616E646C65642043444320436C77
:101D20006173732062526571756573742030782514
:101D30003032780D0A0000001B5B306D000000009F
:101D4000B0B541F2C070C2F200000078002808BFB0
:101D5000B0BD40F21C04C2F2000404F10A0040F2DB
:101D6000F6716122FEF71AFA41F2C175C2F200055E
:101D700001202870812021464FF4006200F016FEF9
:101D800028780028FCD1B0BD80B543F68A50C0F257
:101D9000000000F07FFC41F6E810C2F2000000F005
:101DA000FBFB00F0A7FB41F60820C2F2000000F0A8
:101DB000F3FB00F09FFB40F21400C2F2000000F0C1
:101DC00081FB40F20C00C2F2000000F07BFB41F608
:101DD0002820C2F200000521842201F04FF800F013
:101DE00089FB01F025F880BD80B544F2412240F224
:101DF0000401C0F20F02C2F200019042086038BF35
:101E000080BD0320FFF732FE80BD000080B582B0A8
:101E1000019041F66010C2F2000001A901224FF4C6
:101E20007A73FFF7BDFE019802B080BDF0B581B0B6
:101E300046F21245C4F208052878410723D441F23E
:101E4000E076C10644BF80212970C2F200063178D5
:101E500021B1317805F8121C0021317042F6247747
:101E6000C2F20007397806290BD8DFE801F0384FB5
:101E70000A18040A0400002038708020002100F0B5
:101E8000BFFE01B0F0BD2878002100F0FB002870F3
:101E900042F62470C2F20000017001B0F0BDC0072C
:101EA000EFD0EC88D6F8D0100020224600F054F98C
:101EB000D6F8D000D6F8D8102044C6F8D000B6F82E
:101EC000C80021448442C6F8D81032D2002000F065
:101ED000A7FE482028700420387001B0F0BDC0076C
:101EE000CFD0E8880828CCD106F120040020214674
:101EF000082200F031F9F08C40210028204608BF6C
:101F00004821297000F010FE01B0F0BD706B318DDA
:101F1000B26B884203D90A44B263401A02E010440B
:101F2000B0630020B16B7063802000F069FE01B0E7
:101F3000F0BD4020287001B0F0BD000041F21C004F
:101F4000C2F2000090F81D01002818BF0120704760
:101F5000FFF7ACFA04200121FFF712FB46F600411F
:101F6000C0F2DC210420FFF773F86FF0004001217C
:101F7000FFF7B0FA00F0E8F906A001F0CBFEFFF79A
:101F800003FF00BFFFF7DCFE4FF47A70FFF784FB1E
:101F9000F8E700BF0D53797374656D207374617237
:101FA000742E2E2E0D00000080B541F23C11C2F2BD
:101FB00000010878042811D003281BD0022818D16A
:101FC000C87C40F08000A82813D1FEF76FFB0028E2
:101FD00018BF80BD012000F0D9FF80BD42F64C60E3
:101FE000C2F200000022007801F8042B1F2200F04A
:101FF00091FC80BD002000F0C9FF80BD10B541F20A
:102000003C14C2F200042078012817D020BB0846F7
:10201000FEF772F900BB43F6B060C0F2000001F0B9
:1020200027FCE17C0DA001F023FC43F6CC60C0F25C
:10203000000001F01DFC00F0FFFE10BDE07C40F050
:102040008000AA2808D10846FEF76EFB002818BFBA
:1020500010BD012000F09AFF10BD00BF436F6D6DF1
:10206000616E643A307825303278206465636F643D
:1020700065206572720D0A0010B504464078FE288E
:1020800005D0FF280FD100F055FF002010BD41F210
:102090003C10C2F2000090F8350009680870012079
:1020A0001060002010BD43F6D160C0F2000001F0C6
:1020B000DFFB617805A001F0DBFB43F6CC60C0F2EA
:1020C000000001F0D5FB4FF0FF3010BD556E686188
:1020D0006E646C6564204D534320436C61737320C0
:1020E0006252657175657374203078253032780DD1
:1020F0000A00000080B5072805D0012818BF80BD60
:1021000000F018FF80BD42F64C60C2F2000041F2C0
:102110003C110078C2F2000104311F2200F0FAFBEA
:1021200080BD000046F20E40C4F2080000787047FF
:1021300080B5864600204FF0080C00220CFA00F310
:102140009E4507D9072A02F1010200F10100F5D9E5
:10215000002300200B8080BD80B58B070DD03AB3E3
:1021600046F2204CC4F2080C013900BF1CF82030A4
:10217000013A01F8013FF9D11AE046F2204C002360
:10218000C4F2080CB3EB920F02F0030306D09208DE
:102190005CF820E0013A41F804EBF9D1002B08BFCC
:1021A00080BD01391CF82020013B01F8012FF9D135
:1021B00080BD000046F20E41C4F20801087070476D
:1021C00080B58B070DD03AB346F2204CC4F2080C10
:1021D000013900BF11F8013F013A0CF82030F9D164
:1021E0001AE046F2204C0023C4F2080CB3EB920F25
:1021F00002F0030306D0920851F804EB013A4CF8C0
:1022000020E0F9D1002B08BF80BD013911F8012F62
:10221000013B0CF82020F9D180BD00002DE9F04FE2
:1022200081B03821C0F20801D1F89803BC3000F029
:102230008880D1F83002421C3CD000F470624FF22A
:10224000FF03034040F60027B2F5206F43EA034343
:10225000CFF2FF5712BF83EA0700096811F10101AD
:102260006FD043F600440021C2F200044FF4002274
:102270008B5863500431B1F5806FF9D140F20015ED
:1022800046F6961942F6140A46F6A51BC4F208054E
:102290004FF0FF3103266FF0FF08C5F2AA59C5F6CB
:1022A000962ACEF2CB7B4FF40027A163C4F86802D4
:1022B00006E000BFFEE700BF0120013E310630D03E
:1022C0004FF4002045F80890C5F800A0C5F800B00C
:1022D000FFF734FB0028EFD14FF4002021464FF4E4
:1022E00080620023FFF738FB0028E5D1002000BF03
:1022F0002158C259914207D10430B0F5806FF7D10F
:1023000000200028D9D102E001200028D5D143F2D5
:102310005640C0F212006FF0FF012860286068503C
:102320000FE070B14FF40020FFF708FB43F2564076
:10233000C0F212006FF0FF0128602860685000BFF3
:10234000FEE701B0BDE8F08F70B582B0022044F224
:102350004004C0F201100026C4F208046D4600904B
:10236000C0F2013620464FF480612A460196FFF7FD
:1023700073FA0120C0F20110CDE9000620464FF4A7
:1023800000612A46FFF768FA41F66010C2F20000C9
:102390004FF0402100234FF4E132C0E91F33C0F871
:1023A000843080E80E000373FFF77AFB02B070BD43
:1023B0002DE9F041A3B11C4690460E460746FFF7B3
:1023C00045FA054638463146FFF764FB40450AD0DA
:1023D000FFF73CFA401BA042F4D90320BDE8F0818E
:1023E0000120BDE8F0810020BDE8F081B0B500F02B
:1023F00021F846F20144C4F208042078002500F0D8
:10240000DF0020700020FFF7D5FE04F8015C94F88F
:102410005F0040F0010084F85F000420A0720120FA
:10242000A4F80500A4F80750207840F040010020EF
:102430002170B0BD80B54FF400600121FFF7D0FAE4
:102440004FF480600121FFF745F801200121FFF7DB
:1024500041F800200021FFF7FBF84FF48060FFF700
:10246000D9FA4620022102220123FFF797FA4720DA
:10247000022102220123FFF791FA00F001F880BD4A
:1024800080B582B00220C0F2012000900220C0F28C
:102490000150019044F24000C4F208006A464FF433
:1024A0000041FFF7D9F902B080BD000042F6287163
:1024B000C2F200010A4609680029FBD10021106020
:1024C00001607047017842F6C4630A0642F664620E
:1024D000C2F20002C2F2000358BF134601F07F02AD
:1024E00002EB4202406803F8221003EB820188608D
:1024F0007047000010B541F21C04C2F2000494F8C9
:102500001F110177FFF7D2FF94F81F01013084F803
:102510001F0110BD10B50AA00C4601F0A9F944B185
:1025200014F03F0005D181200021002200F03EFA86
:1025300010BD41F2C170C2F200000021017010BD57
:1025400061637475616C20696E206C656E3A2564F8
:102550000D0A000080B506A001F08AF940F61C01C2
:10256000C2F2000102204FF4006200F0D3F980BDF6
:1025700061637475616C206F7574206C656E3A25AB
:10258000640D0A0048F28040C0F21E000860082076
:10259000887100208880704741F66141C0F20001D7
:1025A0000022C0E90112C0E90322704741F2C07065
:1025B000C2F20000017070477047000070470000D1
:1025C00070B542F62872C2F200021668002E08BFEB
:1025D00070BD0C46054601E0366836B13269002A06
:1025E000FAD0284621469047F6E770BDF0B581B095
:1025F00041F21C04C2F20004207800F0030001281C
:102600001CD0022836D142F62870C2F200000768BA
:1026100087B304F1080504F1100603E0012159B164
:102620003F683FB3BB68002BF8D0204629463246AE
:10263000984700210029F3D101B0F0BD42F628707F
:10264000C2F200000768AFB104F1080504F11006FA
:102650007B684BB1397F2279914205D120462946CA
:1026600032469847002100E001210029E4D03F686C
:10267000002FEDD14FF0FF3001B0F0BD80B540F636
:102680001C01C2F2000102204FF4006200F042F986
:1026900080BD0000B0B541F21C05C2F20005044641
:1026A00028464FF49071FDF780FD42F6C461C2F2F6
:1026B000000180220A7042F68D22C0F200028A6078
:1026C00042F664610020C2F2000185F81F01087023
:1026D00042F6E120C0F20000AC618860B0BD0000AD
:1026E000F0B581B046F2124647B2C4F2080600F0D7
:1026F0007F05FFF717FD04462846FFF75BFD002F17
:1027000009D495B1307900F09F003071307940F0F4
:102710008000307111E0307865B100F0CF0030708A
:10272000307840F04000307007E0307800F0FB0077
:10273000307002E000F0FB0030702046FFF73AFDF9
:10274000002001B0F0BD0000002070472DE9F041ED
:1027500082B001780546002011F07F06ADF8060032
:1027600010D0082E22D347A001F082F8297849A082
:1027700001F07EF84DA001F07BF84FF0FF3002B081
:10278000BDE8F08141F2E071C2F200014022012374
:10279000A1F8C82081F8CA0081F8CC300A8581F8F8
:1027A0002A0081F82C3002B0BDE8F08146F21247D1
:1027B000C4F20807FFF7B6FC80463046FFF7FAFC84
:1027C00095F9001041F2E07468880029C2F2000413
:1027D00006EB860104EB810124D46A780123A1F879
:1027E000C80081F8CA2081F8CC307880501EB0FA39
:1027F00080F040098001787138790DF10601C00739
:102800006FF06F0008BF6FF07F0038716888FFF7C6
:102810008FFC00F00F0087F851006068C008A7F82F
:10282000540022E06A780123088581F82A2081F883
:102830002C3027F8020C501EB0FA80F040098001BD
:10284000787038780DF10601C0074FF0480008BFD6
:10285000402038706888FFF76BFC00F00F0087F8A5
:1028600050006068C008A7F85200BDF80600616813
:10287000084460604046FFF79DFC002002B0BDE8C0
:10288000F08100BF1B5B33316D5B452F5553425DBB
:102890002000000045702061646472202564206F70
:1028A000766572666C6F770D0A0000001B5B306DF9
:1028B00000000000F0B581B046F2124647B2C4F203
:1028C000080600F07F05FFF72DFC04462846FFF7B9
:1028D00071FC002F03D42DB10436202011E04DB13E
:1028E00010200EE042F62470C2F2000007210170B1
:1028F000602006E042F62470C2F200000721017059
:1029000060203178084330702046FFF753FC0020E8
:1029100001B0F0BD2DE9F04116460F4629B9002E51
:102920001CBF4FF0FF30BDE8F08100F07F0541F2A1
:10293000E07405EB8500C2F2000404EB800090F81F
:10294000CC00D0B1FFF7EEFB80462846FFF732FC03
:1029500005EB850004EB80000021C0E93476C0F867
:10296000D81076B1ADB146F20841C4F20801012099
:102970000A88A8401043088011E06FF00100BDE80C
:10298000F08165B942F62470C2F2000000210170A6
:1029900005E042F62470C2F20000032101704046B7
:1029A000FFF708FC0020BDE8F08100002DE9F047AA
:1029B00017460E4629B9002F1CBF4FF0FF30BDE867
:1029C000F08700F07F0541F2E07A05EB8500C2F266
:1029D000000A0AEB800090F82C00A8B346F21248D7
:1029E000C4F20808FFF79EFB81462846FFF7E2FB8A
:1029F00098F80000C0072BD105EB85000AEB800496
:102A00000020C4E90C67A0634FB334F828AF284610
:102A1000BA4588BFBA461FFA8AF23146FFF7D0FBA3
:102A2000012038F80C1C00FA05F2114328F80C1CA0
:102A300025BB42F62471C2F20001087021880220F1
:102A40008A4538BF0A2019E06FF00100BDE8F08721
:102A50004846FFF7AFFB6FF00200BDE8F0870DB10D
:102A600001200BE0BAF826000621002842F6247067
:102A7000C2F2000008BF042101700A2088F800009B
:102A80004846FFF797FB0020BDE8F08780B541F28C
:102A90001C03C2F200030846D3E902120144121AD1
:102AA000C3E9021203D08020FFF780FF80BD187DAC
:102AB00038B100201875802000210022FFF776FF32
:102AC00080BDD88850B193F90000B0F1FF3FC8BF76
:102AD00080BD002000210022FFF71CFF80BD000008
:102AE00080B5002908BF80BD41F21C03C2F200037B
:102AF0000846D3E902120144121AC3E9021203D0B4
:102B00000020FFF707FF80BD03F11C00986000F074
:102B100073FB28B1802000210022FFF747FF80BD12
:102B20008020FFF7C7FE80BD10B50168406841F204
:102B30001C04C2F200046060E28848B2B2F5807FF3
:102B4000216011D900280FD443F6B060C0F2000014
:102B500000F08EFE23A001F0DDF843F6CC60C0F259
:102B6000000000F085FE29E004F11C010023C4E907
:102B70000212226123752AB1002803D40020FFF736
:102B8000C9FE10BD00F038FBC0B12069E288904258
:102B900038BF0246B2F5807FE26013D943F6B060D9
:102BA000C0F2000000F064FE0EA001F0B3F843F69E
:102BB000CC60C0F2000000F05BFE10BD8020FFF78B
:102BC00079FE10BDA1688020FFF7F0FEE188206942
:102BD000884228BF10BD10F03F0004BF01202075BF
:102BE00010BD00BF526571756573742062756666AD
:102BF000657220746F6F20736D616C6C0D00000046
:102C000080B500F07F0242F6C46302EB4202C2F2DA
:102C1000000303EB82029268002A18BF904780BD30
:102C200080B500F07F0242F6646302EB4202C2F21A
:102C3000000303EB82029268002A18BF904780BD10
:102C4000072818BF704780B5FFF718FDBDE8804022
:102C500070470000B0B582B00020002500F01AFADD
:102C600041F21C00C2F20000A0F81C518020C0F20A
:102C700040006C4600902046FFF768FD20468DF826
:102C80000050FFF763FD01200021FFF799FC0120B0
:102C9000FFF7D6FF02B0B0BD70B50321B1EB102F26
:102CA000C4B208BFEE2C25D0050A291F022946D33D
:102CB0000F2D41D143F6BE60C0F2000000F0D8FDF8
:102CC00040A001F027F843F6CC60C0F2000000F00D
:102CD000CFFD41F20040C2F2000004687CB341F233
:102CE0001C05C2F20005A868D4E90012FDF744FAF9
:102CF00060681EE043F6BE60C0F2000000F0B8FD60
:102D000042A001F007F843F6CC60C0F2000000F0EA
:102D1000AFFD42F65C60C2F2000004687CB141F293
:102D20001C05C2F20005A86821682279FDF724FA83
:102D300020792861012070BD400A022801D90020B5
:102D400070BD41F21C0CC2F2000CDCF818100A78BD
:102D5000C2B1002005E000BF01308B188A5C194623
:102D60003AB14B789D42F8D1A042F5D1012666B127
:102D700002E00026194646B1072D19D0022D08BFE2
:102D80004A8816E00026002EF6D143F6B060C0F265
:102D9000000000F06DFD12A02946224600F068FDFB
:102DA00043F6CC60C0F2000000F062FD304670BD1A
:102DB0004A88DCF80800CCF81020FDF7DDF9304631
:102DC00070BD00BF7265616420424F53206465731B
:102DD00063726970746F7220737472696E670D002C
:102DE00064657363726970746F72203C7479706586
:102DF0003A25782C696E6465783A25783E206E6FA6
:102E00007420666F756E64210D0A0000726561643E
:102E1000204D53204F5320322E302064657363724F
:102E20006970746F7220737472696E670D000000B0
:102E300080B5FFF7DBFA80BDB0B541F23C14C2F2B9
:102E40000004207C42F64C65C2F2000520B9E0681F
:102E500010B12878FFF72EFD287AFFF72BFD287890
:102E6000211D1F22FFF756FDB0BD00004FF47A7000
:102E700008604FF40070108070470000B0B5044641
:102E800042F27900C0F20000002342F2F505C4E9E5
:102E9000010342F64C60C0F20005C2F20000C4E932
:102EA0000335017041F6FD71C0F20001416041F649
:102EB000A9710546C0F2000105F8082FC160FFF7AF
:102EC00001FB2846FFF7FEFA41F23C15C2F200056D
:102ED00028464FF41271FDF768F905F1440105F138
:102EE00040020020FFF7C2FFB5F84000B0F5007FB8
:102EF0000FD943F6B060C0F2000000F0B9FC06A0A4
:102F000000F008FF43F6CC60C0F2000000F0B0FC17
:102F100000242046B0BD00BF6D736320626C6F63F8
:102F20006B20627566666572206F766572666C6F7F
:102F3000770D000041F23C10C2F200000021017048
:102F400080F831107047000009280CD880B541F690
:102F50004C23C2F2000303EB402308461946FDF759
:102F60000BF9BDE8804000207047000009280AD80E
:102F700080B541F64C23C2F2000303EB4020FDF77D
:102F8000FBF8BDE8804000207047000080B541F2AA
:102F90003C11C2F2000181F830000420087042F6B2
:102FA0004C6045F25532C2F20000C5F24232007A5E
:102FB00041F8242F0D22FFF7F9FC80BDB0B541F296
:102FC0003C15C2F20005EC68024642F64C60C2F2C3
:102FD00000008C4288BF0C460321007A29701146FC
:102FE0002246FFF7E3FCE86A001BE862002085F850
:102FF0003000B0BD80B582B043F6BE60C0F20000C4
:1030000000F036FC41F21C00C2F200000178427868
:103010004388B0F804C0B0F806E043F65360C0F24D
:103020000000CDF800C0CDF804E000F021FC43F62C
:10303000CC60C0F2000000F01BFC02B080BD0000BC
:10304000B0B58478C57843F6BE60C0F2000000F0E9
:103050000FFC05F0030208A0214600F009FC43F62E
:10306000CC60C0F2000000F003FC2046FFF76CFBD0
:10307000B0FA80F04009B0BD436C6F736520657095
:103080003A30782530327820747970653A25750D9C
:103090000A000000014628B946F20040C4F20800C8
:1030A0000022027041F2E072C2F2000200201170B0
:1030B00070470000F0B581B041F21C01C2F200017E
:1030C0008C69217801B30546FF260020FF2704E024
:1030D000E7782178625C0C44BAB1617805290BD09D
:1030E0000429F5D00229F4D16679711BB1FA81F176
:1030F00049090843EDE700BF002F08BFAE42E8D101
:10310000204600F007F8E4E7002000F0010001B0DD
:10311000F0BD000080B582B081788DF80010818804
:10312000C0786FF3DF2100F003008DF8010043F653
:10313000BE60C0F20000ADF8021000F099FB9DF8EF
:1031400000109DF80120BDF8023008A000F090FBAF
:1031500043F6CC60C0F2000000F08AFB6846FFF73F
:10316000F5FAB0FA80F0400902B080BD4F70656E8C
:103170002065703A30782530327820747970653A5D
:103180002575206D70733A25750D0A002DE9F04301
:1031900081B041F21C02C2F20002966932781AB381
:1031A000884681460024FF25FF2705E0FFF7B2FF90
:1031B0003078315C0644C1B1707805280CD0042801
:1031C000F6D1B578F77885EA090087EA080108435F
:1031D00008BF3446ECE700BF4D45E9D130464745CE
:1031E000E4D0FFF72DFFE3E7002408202146FFF796
:1031F000E7F901B0BDE8F08310B541F21C04C2F25A
:103200000004207800F06000402821D020282CD035
:1032100000281CBF002010BD00F080F8B0F1FF3F77
:10322000C4BF012010BD6078062825D16088B0F5A4
:10323000C06F21D130A000F01BFB33A000F06AFD6D
:1032400043F6CC60C0F2000000F012FB002010BD7D
:1032500000F0ACF9B0F1FF3F0CDC43F6B060C0F217
:10326000000000F005FB12A015E0FFF7BFF9B0F178
:10327000FF3F09DD012010BD43F6B060C0F2000041
:1032800000F0F6FA16A006E043F6B060C0F20000C7
:1032900000F0EEFA0CA000F03DFD43F6CC60C0F269
:1032A000000000F0E5FAFFF7A5FE002010BD00BF0A
:1032B00076656E646F7220726571756573742065D2
:1032C00072726F720D000000636C6173732072651F
:1032D0007175657374206572726F720D0000000065
:1032E0007374616E64617264207265717565737464
:1032F000206572726F720D001B5B33336D5B572F4D
:103300005553425D2000000049676E6F726520448E
:10331000514420696E2066730D00000080B541F2B3
:103320001C00C2F20000007800F00300022809D05F
:1033300001280AD000281CBF4FF0FF3080BD00F0EC
:103340000BF804E000F058F801E000F0BDF880F060
:103350000100404280BD0000F0B581B041F21C0682
:10336000C2F2000671780024092942D87588DFE886
:1033700001F02C05400540353C401117012D05D1C9
:103380000A20032908BF0920FFF75AFC00203061FA
:1033900001242EE006F21D100124B060346128E003
:1033A000E8B2FFF787FE00274FF0000458B1012470
:1033B0000720002186F81D5186F81C41FFF700F90F
:1033C0000720FFF73DFC376113E0B0680021017072
:1033D000B06801244170022030610AE0E8B2FFF7D2
:1033E00059FE00203061012403E02846FFF754FC19
:1033F0000446204601B0F0BD70B541F21C05C2F292
:1034000000052C79FEF79AFD70B1687803280DD07D
:10341000012813D040B9A86800210170A868417044
:1034200002202861012070BD002070BD6888002640
:1034300000284FF000001BD02E6170BD688810B1CD
:103440000020286170BD43F6B060C0F2000000F0BB
:103450000FFA17A0214600F00BFA43F6CC60C0F239
:10346000000000F005FA2046FFF73AF9012070BD90
:1034700043F6B060C0F2000000F0FAF907A0214660
:1034800000F0F6F943F6CC60C0F2000000F0F0F96D
:103490002046FFF70FFA01202E6170BD65703A25B6
:1034A000303278207365742068616C740D0A0000F6
:1034B00065703A2530327820636C656172206861EE
:1034C0006C740D0A0000000070B541F21C04C2F2D9
:1034D00000046688A588FEF731FD002841D0617898
:1034E00000200B2988BF70BDDFE801F0064A4A4A78
:1034F0004A4A0D4A4A4A3D43A06800210170A0682B
:10350000417002203AE026F0FF00B0F5085F28D1B4
:1035100043F6BE60C0F2000000F0AAF91CA000F063
:10352000F9FB43F6CC60C0F2000000F0A1F942F6CE
:103530002870C2F2000006681EB3EDB2307FA842C8
:1035400008D1A068D6E90512FCF716FEB069206123
:10355000012000E00020A8B93668002EEED100203E
:1035600010E0002070BDA0680021017001202061E2
:1035700070BDE8B2F1B2FFF709FE00202061012022
:1035800070BD0020002814BF0120002070BD00BFC6
:103590007265616420686964207265706F7274205E
:1035A00064657363726970746F720D00F0B581B0F9
:1035B00042F65C65C2F20005286818B341F21C04AB
:1035C000C2F2000461784079814243D1A088052885
:1035D0006FD004285AD143F6BE60C0F2000000F05C
:1035E00047F948A000F096FB43F6CC60C0F200001B
:1035F00000F03EF92D68A068A968AA89FCF7BCFD17
:10360000A8896CE042F66065C2F20005286808B33C
:1036100041F21C04C2F2000461788079814219D120
:10362000A088072832D143F6BE60C0F2000000F047
:103630001FF93EA000F06EFB43F6CC60C0F2000024
:1036400000F016F92D68A0682968AA88FCF794FD97
:10365000A88844E042F62870C2F20000076827B349
:1036600041F21C04C2F2000404F1080504F1100642
:1036700002E000BF3F68C7B1FB68002BFAD02046CC
:103680002946324698470028F4D129E043F6B06035
:10369000C0F2000000F0ECF81EA000F03BFB43F687
:1036A000CC60C0F2000000F0E3F84FF0FF3001B052
:1036B000F0BD43F6BE60C0F2000000F0D9F80AA0E9
:1036C00000F028FB43F6CC60C0F2000000F0D0F818
:1036D0002D68A0682969AA8AFCF74EFDA88A206196
:1036E000002001B0F0BD00BF67657420436F6D70AE
:1036F00061742069642070726F706572746965739B
:103700000D00000067657420436F6D70617420497F
:10371000440D0000756E6B6E6F776E2076656E647B
:103720006F7220636F64650D0000000047455420F0
:103730004D53204F5320322E3020446573637269FD
:1037400070746F720D0000003D483E4908603E48AD
:103750003E4908603E4808603E4801684FF6FF72E7
:1037600001EA02013C4A41EA020101600160016094
:10377000016001600160016001600160016000465C
:10378000004636483149086035484FF08061016095
:1037900032482C49086033488047334880473348D3
:1037A000004700BFFEE7FEE7FEE7FEE7FEE7FEE7B5
:1037B000FEE7FEE7FEE7FEE7FEE7FEE7FEE7FEE7E1
:1037C000FEE7FEE7FEE7FEE7FEE7FEE7FEE7FEE7D1
:1037D000FEE7FEE7FEE7FEE7FEE7FEE7FEE7FEE7C1
:1037E000FEE7FEE7FEE7FEE7FEE7FEE7FEE7FEE7B1
:1037F000FEE7FEE7FEE7FEE7FEE7FEE7FEE7FEE7A1
:10380000FEE7FEE7FEE7FEE7FEE7FEE7FEE7FEE790
:10381000FEE7FEE7FEE7FEE7FEE7FEE7FEE7FEE780
:10382000FEE7FEE7FEE7FEE7FEE7FEE7FEE7FEE770
:10383000FEE7FEE7FEE7FEE7FEE7FEE7FEE7000045
:103840009669AA55000008401428965A00010840BD
:10385000A569CBE7003C08400000AA555634120089
:10386000040408401D220000D50E00006501000080
:103870000FB4054B10B503A9044A029800F018F8DC
:1038800010BC5DF814FB00000D1E000000000020BD
:1038900002E008C8121F08C1002AFAD17047704719
:1038A000002001E001C1121F002AFBD17047000077
:1038B0002DE9FF4F8DB00F460546002606E025286E
:1038C0000BD0DDE90F1290476D1C761C287800287C
:1038D000F5D111B03046BDE8F08F0024A246A146D4
:1038E0000122EC4900E0044315F8013F203B02FAB5
:1038F00003F00842F7D128782A2810D06FF02F0261
:103900002878A0F13001092914D80AEB8A0102EBCA
:10391000410144F0020400EB010A6D1CF0E701CF05
:103920005FEA000A03D544F40054CAF1000A44F0E7
:1039300002046D1C28782E2817D115F8010F44F0C9
:1039400004042A280ED06FF02F022878A0F130014D
:1039500009290AD809EB890102EB410100EB0109B1
:103960006D1CF2E757F8049B6D1C28786C280FD06B
:1039700006DC4C2817D068280DD06A2814D104E042
:10398000742810D07A280FD10DE044F400140AE016
:1039900044F4801401E044F440146978814202D177
:1039A00004F580146D1C6D1C2A786E2A1FD00CDC67
:1039B000632A31D004DC002A8BD0582A11D1A3E02D
:1039C000642A68D0692A0CD165E0732A2ED004DC01
:1039D0006F2A73D0702A04D19BE0752A6FD0782AA1
:1039E0006ED01046DDE90F129047761C50E1C4F30B
:1039F0000250022806D0032809D0042801CF09D09C
:103A0000066045E101CFF117C0E9006140E101CF57
:103A100006803DE106703BE117F8040B8DF80000CD
:103A200000208DF80100EB46012003E057F804BBAD
:103A30004FF0FF3061074FF0000102D40DE008F1B4
:103A40000101884649450FDA8045F8DB1BF808106C
:103A50000029F4D108E008F1010188468142FADB2F
:103A60001BF808100029F6D1DDE90F23AAEB0800A6
:103A70008146214600F036F9304400EB080604E0A8
:103A8000DDE90F121BF8010B9047B8F10108F7D2DE
:103A900021464846F7E00A21C4F302534FF0000BD9
:103AA0000891022B04D001CFC117032B09D00AE0E3
:103AB000FF1D27F00707F7E8020108E032E01FE0EA
:103AC00020E000B2C117042B01D140B2C117031E80
:103AD00071F1000307DA4FF0000CD0EB0C006CEB37
:103AE00001012D2302E0230504D52B238DF824307A
:103AF000012303E0E30701D02023F7E7984658E0CD
:103B00000A2110E010210EE010204FF0000B089069
:103B10000CE010214FF0000B44F004044FF00809B2
:103B2000089103E008214FF0000B0891C4F3025301
:103B3000022B04D001CF0021032B06D006E0FF1D8D
:103B400027F00707F7E8020103E080B2042B00D159
:103B5000C0B24FF0000823072BD5702A07D0DDF83C
:103B600020C08CF0100C5CEA0B0C05D00EE040235A
:103B70008DF82430012308E050EA010306D03023F9
:103B80008DF824308DF8252002239846DDF820C0DA
:103B90008CF0080C5CEA0B0C0BD150EA010301D14C
:103BA000630706D530238DF824304FF00108A9F1C2
:103BB0000109582A04D038A20B9208AA0A920BE0F5
:103BC0003AA2F9E75B46089AFCF707FB0B9B9B5C64
:103BD0000A9A521E0A92137050EA0102F2D10A9810
:103BE000ADEB000000F1200B600702D524F4803417
:103BF00001E04FF00109D94502DDA9EB0B0000E01F
:103C0000002000EB0B0141440890AAEB010AE003FD
:103C100006D4DDE90F232146504600F063F8064440
:103C20004FF0000908E009A911F80900DDE90F12B9
:103C3000904709F10109761CC145F4DBE0030CD57E
:103C4000DDE90F232146504600F04CF8064404E01D
:103C5000DDE90F1230209047761C0899481E089025
:103C60000029F5DC08E00A980A990078491C0A91B5
:103C7000DDE90F129047761CBBF10001ABF1010B9F
:103C8000F1DC21465046DDE90F2300F019F8064427
:103C90006D1C1BE6092801003031323334353637CC
:103CA0003839616263646566000000003031323388
:103CB0003435363738394142434445460000000028
:103CC0002DE9F041044600251E461746880404D419
:103CD00005E039462020B0476D1C641EF9D5284602
:103CE000BDE8F0812DE9F041044600251E469046CE
:103CF000C80301D5302700E02027880404D505E05B
:103D000041463846B0476D1C641EF9D52846BDE8CB
:103D1000F081000010B5044601E0FEF777F814F8D2
:103D2000010B04490028F8D1BDE810400A20FEF735
:103D30006DB8000000000020008002021F0000009B
:103D40002020202020202020202020202020202073
:103D500020202020202020202020202000260000BD
:103D60000000000008120000000000000000000039
:103D70000000000000000000700000000000000AC9
:103D80000000000000000000000012010002EF022D
:103D90000140FFFFFFFF0001010203010902620071
:103DA0000301008032080B00020202010009040036
:103DB0000001020201020524001001052401000196
:103DC0000424020205240600010705830308000AF3
:103DD00009040100020A0000000705020240000079
:103DE0000705810240000009040200020806500095
:103DF0000705050240000007058402400000040397
:103E00000904140343006800650072007200790021
:103E1000550053004200260343006800650072000D
:103E200072007900550053004200200043002D002D
:103E30004D002000440045004D004F0016033200A5
:103E400030003200320031003200330034003500DF
:103E500036000053657475703A20626D5265717555
:103E600065737454797065203078253032782C2051
:103E70006252657175657374203078253032782C04
:103E8000207756616C7565203078253034782C2089
:103E900077496E646578203078253034782C207727
:103EA0004C656E677468203078253034780D0A00D0
:103EB0001B5B33316D5B452F5553425D20001B5B0F
:103EC00033326D5B492F5553425D20001B5B306DD3
:103ED000001B5B33336D5B572F5553425D20000051
:103EE0000040000000000020001400009E020000BE
:103EF000004200000014002030230000A038000021
:103F000000000000000000000000000000000000B1
:103F100000000000000000000000000000000000A1
:103F20000000000000000000000000000000000091
:103F30000000000000000000000000000000000081
:103F40000000000000000000000000000000000071
:103F50000000000000000000000000000000000061
:103F60000000000000000000000000000000000051
:103F70000000000000000000000000000000000041
:103F80000000000000000000000000000000000031
:103F90000000000000000000000000000000000021
:103FA0000000000000000000000000000000000011
:103FB0000000000000000000000000000000000001
:103FC00000000000000000000000000000000000F1
:103FD00000000000000000000000000000000000E1
:103FE00000000000000000000000000000000000D1
:103FF00000000000000000000000000000000000C1
:104000006136366E01E8034281331525420233558D
:10401000250BFF3132333435363738393001FF0163
:10402000FF01FF01FF01FF01FF01FF01FF01FF0190
:10403000FF01FF01FF01FF01FF01FF01FF01FF0180
:10404000FF01FF3100000000000000000000000040
:104050000000000000000000000000000000000060
:104060000000000000000000000000000000000050
:104070000000000000000000000000000000000040
:104080000000000000000000000000000000000030
:104090000000000000000000000000000000000020
:1040A0000000000000000000000000000000000010
:1040B0000000000000000000000000000000000000
:1040C00000000000000000000000000000000000F0
:1040D00000000000000000000000000000000000E0
:1040E00000000000000000000000000000000000D0
:1040F00000000000000000000000000000000000C0
:1041000000000000000000000000000000000000AF
:10411000000000000000000000000000000000009F
:10412000000000000000000000000000000000008F
:10413000000000000000000000000000000000007F
:10414000000000000000000000000000000000006F
:10415000000000000000000000000000000000005F
:10416000000000000000000000000000000000004F
:10417000000000000000000000000000000000003F
:10418000000000000000000000000000000000002F
:10419000000000000000000000000000000000001F
:1041A000000000000000000000000000000000000F
:1041B00000000000000000000000000000000000FF
:1041C00000000000000000000000000000000000EF
:1041D00000000000000000000000000000000000DF
:1041E00000000000000000000000000000000000CF
:1041F00000000000000000000000000000000000BF
:040000050000016591
:00000001FF
